:03000000020800F3
:0C080000787FE4F6D8FD75811D020847E2
:1008D50014080003009F0025000D00990049004100
:0608E500001F00010009E4
:10088C00E4F5A0E4F51CF51DE51D25E02408F808A9
:10089C00E6F4F5A01208B8051DE51D7002051CD381
:0C08AC00940AE51C6480948040DE80D734
:1008B800E4FFFEE4FDFC0DBD00010CBC27F8BD10F3
:0C08C800F50FBF00010EEF640A4E70E750
:0108D4002201
:10080C0002088CE493A3F8E493A34003F68001F26E
:10081C0008DFF48029E493A3F85407240CC8C333ED
:10082C00C4540F4420C8834004F456800146F6DFBC
:10083C00E4800B01020408102040809008D5E47E6F
:10084C00019360BCA3FF543F30E509541FFEE493B1
:10085C00A360010ECF54C025E060A840B8E493A378
:10086C00FAE493A3F8E493A3C8C582C8CAC583CAA3
:10087C00F0A3C8C582C8CAC583CADFE9DEE780BE5B
:0108EB00000C
:00000001FF
